:060000000A128A11122809
:10000800FE00030E83120313AD000408AE000A08B5
:10001800AF007F08B0000A128A111F290A128A113C
:100028001528FC01A001A101A201A301A401A501B9
:10003800A601A701A801A901AA01AB010A128A1108
:10004800CC220A128A11B5000A128A11CD220A128C
:100058008A11B6000A128A11CE220A128A11B70032
:100068000A128A11CF22FD0083010A128A113C2844
:100078000A128A11BA220A128A110A128A119E22B7
:100088000A128A110A128A1193220A128A110A1272
:100098008A11B1220A128A110A128A1120220A121E
:1000A8008A110A128A1120220A128A118312031352
:1000B8000608B30002300310B30CFF3E031D5F288F
:1000C80033080C39B4003408AB000A128A115E22D6
:1000D8000A128A1101308312031326062704031D0E
:1000E8006E280A128A11C2220A128A118312031375
:1000F800A601A701A001A101A801A901B501B601A6
:1001080083120313A401A501861884280A128A11F0
:10011800CE210A128A118312031386188428053007
:10012800A4070318A50A0030A5078618A4280A12F0
:100138008A113F220A128A1101308312031394286C
:100148000A128A11CE210A128A1183120313250872
:10015800803AFF0080307F02031DB42865302402F6
:10016800031CF22883120313360835040319CA281E
:10017800A601A7010A128A115E220A128A11013009
:100188008312031326062704031DC328A601A7010B
:10019800AA01AA0AA001A101A801A9010A128A11AB
:1001A8005E220A128A1101308312031326062704DD
:1001B800031DD728AA0129083606031DE5282808A3
:1001C80035060319EC28023026062704031DDF280C
:1001D8000A128A11C2220A128A118428831203136E
:1001E8002508803AFF0080307F02031DFD281E305D
:1001F800240203188428831203132508803AFF0079
:1002080080307F02031D0A2901302402031C842840
:100218000A128A11A8220A128A11031C19290A1221
:100228008A11C2220A128A1184280A128A115E22AD
:100238000A128A1184280000000000008B1C2F2954
:1002480083120313B501B6010130A6070318A70AE4
:100258000030A7078B100B1C922983120313370851
:1002680003194E29B7010A128A11F9210A128A11B3
:1002780003188B290A128A11C7220A128A110A1234
:100288008A1184220A128A110A128A1171220A1208
:100298008A118B2983120313AA08031D5A290130D6
:1002A800B5070318B60A0030B6078B292A08013AA1
:1002B800031D8B290130B5070318B60A0030B607AD
:1002C8000A128A119F210A128A11710883120313D4
:1002D800A301A3077008A201A2072108803AAC0075
:1002E8002308803A2C02031D7B29220820020318C8
:1002F8008B29831203132308A101A1072208A00157
:10030800A0073608A901A9073508A801A80783127C
:1003180003130608AC002C08FB000B108312031310
:100328003008FF002F088A002E0884002D0E830055
:10033800FE0E7E0E0900831203131F151F19A22932
:10034800831603131E08F20006300310F20CFF3E5A
:10035800031DA92972080339F300F401831203135A
:100368001E08F500F6010310F50DF60D0310F50D46
:10037800F60D73087504F70074087604F80077081A
:10038800F9007808FA007A08F101F1077908F00114
:10039800F007080083120313B101B2013208803A52
:1003A800FF0080307F02031DDB290530310203186E
:1003B800F7294C30831203138F0000308E000C1C79
:1003C800E3290C100130B1070318B20A0030B20754
:1003D8003208803AFF0080307F02031DF52905307E
:1003E8003102031CDD2900000800831203130608EC
:1003F8003039F0007008AB04052A03140800031014
:1004080008002B08043A0319032A0C3A0319012A95
:10041800183A0319012A0C3A0319032A3C3A03191A
:10042800032A0C3A0319012A183A0319012A0C3A2B
:100438000319032A1F2A080083120313B101B2010A
:100448003208803AFF0080307F02031D2D2A0230D7
:100458003102031808004C30831203138F00003058
:100468008E000C1C352A0C100130B1070318B20A93
:100478000030B207242A83120313B101B2013208F3
:10048800803AFF0080307F02031D4C2A0130310280
:10049800031808004C30831203138F0000308E00BD
:1004A8000C1C542A0C100130B1070318B20A003092
:1004B800B207432A7D1C642A831203130816672A8D
:1004C8008312031308127C1C6D2A831203138817E6
:1004D800080083120313881308007D1C772A8312EF
:1004E800031308167A2A8312031308127C1C802A25
:1004F8008312031388170800831203138813080054
:10050800FD08003003190130F0007008FD00FC08F8
:10051800003003190130F0007008FC000800831255
:10052800031310149010101290124C308F000030EA
:100538008E000800333083160313860088010910E3
:10054800013085000113080083120313081A881F5D
:10055800AF2A03100800031408000E308316031393
:100568009F008130831203139F0008008B150B1620
:10057800D8308B00831203138D01080083120313F4
:10058800081688170800831203130816881708002E
:08059800FF34FF34013401348B
:02400E0032FF7F
:00000001FF
