:060000000A128A11F62F1E
:100CD60083120313A001A101A10A08000E30831696
:100CE60003139F008130831203139F0008008316AD
:100CF60003138801061686160910013085000800C0
:100D06008312031310149010101290124C308F009F
:100D160000308E00080083120313A0080030031968
:100D26000130F0007008A000A1080030031901305E
:100D3600F0007008A100080083120313201CA72EE0
:100D4600831203130816AA2E831203130812211CFA
:100D5600B02E831203138817080083120313881317
:100D66000800F001F1017108803AFF0080307F022F
:100D7600031DBF2E02307002031808004C30831288
:100D860003138F0000308E000C1CC72E0C10013090
:100D9600F0070318F10A0030F107B62EF001F10151
:100DA6007108803AFF0080307F02031DDC2EC830B8
:100DB6007002031808004C30831203138F000030B2
:100DC6008E000C1CE42E0C100130F0070318F10AFB
:100DD6000030F107D32E8312031308168817F0018B
:100DE600F1017108803AFF0080307F02031DFD2E5D
:100DF60064307002031808004C30831203138F000E
:100E060000308E000C1C052F0C100130F007031863
:100E1600F10A0030F107F42E0A128A1138270A1255
:100E26008A11710883120313A301A3077008A20194
:100E3600A20724082206A60025082306A700A71C49
:100E46002F2F2308A501A5072208A401A407013016
:100E5600FB000030FC0008002308A501A5072208B6
:100E6600A401A407FB01FC010800831203131F154C
:100E76001F193B2F831603131E08F20006300310BA
:100E8600F20CFF3E031D422F72080339F300F401F2
:100E9600831203131E08F500F6010310F50DF60D77
:100EA6000310F50DF60D73087504F7007408760443
:100EB600F8007708F9007808FA007A08F101F107D6
:100EC6007908F001F007080083120313A801A901AD
:100ED6002908803AFF0083307F02031D742FE83013
:100EE6002802031808004D30831203138F0059306F
:100EF6008E000C1C7C2F0A128A110F270A128A11E7
:100F06007C087B040319962F0A128A11EE260A1210
:100F16008A110A128A11D1260A128A110A128A1114
:100F26009F260A128A11831203130C100130A80798
:100F36000318A90A0030A9076B2F0A128A11712615
:100F46000A128A118B130A128A117A260A128A1138
:100F56000A128A1183260A128A110A128A116B262C
:100F66000A128A110A128A11B4260A128A110A1260
:100F76008A1138270A128A11710883120313A301F2
:100F8600A3077008A201A2072308A501A507220846
:100F9600A401A4070A128A119F260A128A110A12AC
:100FA6008A1167270A128A110A128A11EE260A1274
:100FB6008A110A128A118E260A128A110A128A11B7
:100FC6009F260A128A110A128A1167270A128A11A3
:100FD6000A128A11EE260A128A110A128A118E261E
:100FE6000A128A11CD2FA001A101A201A301A40119
:0A0FF600A50183010A128A11A02F41
:02400E0032FF7F
:00000001FF
